{
  "_format": "hh-sol-artifact-1",
  "contractName": "Transactions",
  "sourceName": "contracts/Transactions.sol",
  "abi": [
    {
      "inputs": [],
      "stateMutability": "nonpayable",
      "type": "constructor"
    },
    {
      "anonymous": false,
      "inputs": [
        {
          "indexed": false,
          "internalType": "address",
          "name": "from",
          "type": "address"
        },
        {
          "indexed": false,
          "internalType": "address",
          "name": "receiver",
          "type": "address"
        },
        {
          "indexed": false,
          "internalType": "uint256",
          "name": "amount",
          "type": "uint256"
        },
        {
          "indexed": false,
          "internalType": "uint256",
          "name": "propertyID",
          "type": "uint256"
        },
        {
          "indexed": false,
          "internalType": "uint256",
          "name": "timestamp",
          "type": "uint256"
        }
      ],
      "name": "Transfer",
      "type": "event"
    },
    {
      "inputs": [
        {
          "internalType": "address payable",
          "name": "receiver",
          "type": "address"
        },
        {
          "internalType": "uint256",
          "name": "amount",
          "type": "uint256"
        },
        {
          "internalType": "uint256",
          "name": "propertyID",
          "type": "uint256"
        }
      ],
      "name": "addToBlockchain",
      "outputs": [],
      "stateMutability": "nonpayable",
      "type": "function"
    },
    {
      "inputs": [
        {
          "internalType": "uint256",
          "name": "_propId",
          "type": "uint256"
        },
        {
          "internalType": "uint256",
          "name": "_newValue",
          "type": "uint256"
        }
      ],
      "name": "changeValue",
      "outputs": [
        {
          "internalType": "bool",
          "name": "",
          "type": "bool"
        }
      ],
      "stateMutability": "nonpayable",
      "type": "function"
    },
    {
      "inputs": [
        {
          "internalType": "uint256",
          "name": "_propId",
          "type": "uint256"
        },
        {
          "internalType": "uint256",
          "name": "_value",
          "type": "uint256"
        },
        {
          "internalType": "address",
          "name": "_owner",
          "type": "address"
        }
      ],
      "name": "createProperty",
      "outputs": [
        {
          "internalType": "bool",
          "name": "",
          "type": "bool"
        }
      ],
      "stateMutability": "nonpayable",
      "type": "function"
    },
    {
      "inputs": [
        {
          "internalType": "address",
          "name": "target",
          "type": "address"
        }
      ],
      "name": "findAddress",
      "outputs": [
        {
          "components": [
            {
              "internalType": "uint256",
              "name": "propId",
              "type": "uint256"
            },
            {
              "internalType": "uint256",
              "name": "value",
              "type": "uint256"
            },
            {
              "internalType": "address",
              "name": "currOwner",
              "type": "address"
            },
            {
              "internalType": "address",
              "name": "pendingOwner",
              "type": "address"
            }
          ],
          "internalType": "struct Transactions.Property[]",
          "name": "",
          "type": "tuple[]"
        }
      ],
      "stateMutability": "view",
      "type": "function"
    },
    {
      "inputs": [
        {
          "internalType": "uint256",
          "name": "target",
          "type": "uint256"
        }
      ],
      "name": "findIndex",
      "outputs": [
        {
          "internalType": "uint256",
          "name": "index",
          "type": "uint256"
        }
      ],
      "stateMutability": "view",
      "type": "function"
    },
    {
      "inputs": [],
      "name": "getAllProperties",
      "outputs": [
        {
          "components": [
            {
              "internalType": "uint256",
              "name": "propId",
              "type": "uint256"
            },
            {
              "internalType": "uint256",
              "name": "value",
              "type": "uint256"
            },
            {
              "internalType": "address",
              "name": "currOwner",
              "type": "address"
            },
            {
              "internalType": "address",
              "name": "pendingOwner",
              "type": "address"
            }
          ],
          "internalType": "struct Transactions.Property[]",
          "name": "",
          "type": "tuple[]"
        }
      ],
      "stateMutability": "view",
      "type": "function"
    },
    {
      "inputs": [],
      "name": "getAllTransactions",
      "outputs": [
        {
          "components": [
            {
              "internalType": "address",
              "name": "sender",
              "type": "address"
            },
            {
              "internalType": "address",
              "name": "receiver",
              "type": "address"
            },
            {
              "internalType": "uint256",
              "name": "amount",
              "type": "uint256"
            },
            {
              "internalType": "uint256",
              "name": "propertyID",
              "type": "uint256"
            },
            {
              "internalType": "uint256",
              "name": "timestamp",
              "type": "uint256"
            }
          ],
          "internalType": "struct Transactions.TransferStruct[]",
          "name": "",
          "type": "tuple[]"
        }
      ],
      "stateMutability": "view",
      "type": "function"
    },
    {
      "inputs": [
        {
          "internalType": "address",
          "name": "owner",
          "type": "address"
        }
      ],
      "name": "getOwnedBottles",
      "outputs": [
        {
          "internalType": "uint256[]",
          "name": "",
          "type": "uint256[]"
        }
      ],
      "stateMutability": "view",
      "type": "function"
    },
    {
      "inputs": [],
      "name": "getPropertyCount",
      "outputs": [
        {
          "internalType": "uint256",
          "name": "",
          "type": "uint256"
        }
      ],
      "stateMutability": "view",
      "type": "function"
    },
    {
      "inputs": [
        {
          "internalType": "uint256",
          "name": "_id",
          "type": "uint256"
        }
      ],
      "name": "getPropertyDetails",
      "outputs": [
        {
          "components": [
            {
              "internalType": "uint256",
              "name": "propId",
              "type": "uint256"
            },
            {
              "internalType": "uint256",
              "name": "value",
              "type": "uint256"
            },
            {
              "internalType": "address",
              "name": "currOwner",
              "type": "address"
            },
            {
              "internalType": "address",
              "name": "pendingOwner",
              "type": "address"
            }
          ],
          "internalType": "struct Transactions.Property",
          "name": "",
          "type": "tuple"
        }
      ],
      "stateMutability": "view",
      "type": "function"
    },
    {
      "inputs": [
        {
          "internalType": "uint256",
          "name": "propertyId",
          "type": "uint256"
        },
        {
          "internalType": "address",
          "name": "currentOwner",
          "type": "address"
        },
        {
          "internalType": "address",
          "name": "newOwner",
          "type": "address"
        }
      ],
      "name": "initOwnershipTransfer",
      "outputs": [],
      "stateMutability": "nonpayable",
      "type": "function"
    },
    {
      "inputs": [
        {
          "internalType": "uint256",
          "name": "",
          "type": "uint256"
        }
      ],
      "name": "pendingOwner",
      "outputs": [
        {
          "internalType": "address",
          "name": "",
          "type": "address"
        }
      ],
      "stateMutability": "view",
      "type": "function"
    },
    {
      "inputs": [
        {
          "internalType": "address",
          "name": "",
          "type": "address"
        }
      ],
      "name": "userRoles",
      "outputs": [
        {
          "internalType": "enum Transactions.Role",
          "name": "",
          "type": "uint8"
        }
      ],
      "stateMutability": "view",
      "type": "function"
    }
  ],
  "bytecode": "0x608060405234801561001057600080fd5b5060003390506000600360008373ffffffffffffffffffffffffffffffffffffffff1673ffffffffffffffffffffffffffffffffffffffff16815260200190815260200160002060006101000a81548160ff0219169083600181111561009f577f4e487b7100000000000000000000000000000000000000000000000000000000600052602160045260246000fd5b0217905550600260405180608001604052806000815260200160008152602001735b38da6a701c568545dcfcb03fcb875f56beddc473ffffffffffffffffffffffffffffffffffffffff168152602001735b38da6a701c568545dcfcb03fcb875f56beddc473ffffffffffffffffffffffffffffffffffffffff168152509080600181540180825580915050600190039060005260206000209060040201600090919091909150600082015181600001556020820151816001015560408201518160020160006101000a81548173ffffffffffffffffffffffffffffffffffffffff021916908373ffffffffffffffffffffffffffffffffffffffff16021790555060608201518160030160006101000a81548173ffffffffffffffffffffffffffffffffffffffff021916908373ffffffffffffffffffffffffffffffffffffffff1602179055505050506126e7806101fa6000396000f3fe608060405234801561001057600080fd5b50600436106100cf5760003560e01c80633d51402c1161008c5780638709b2e7116100665780638709b2e71461023a5780639448f03d1461026a57806398d5256a1461029a578063d4c6974a146102ca576100cf565b80633d51402c146101ce5780637326b901146101ec57806374d5e1001461020a576100cf565b80630309aca3146100d457806306201a3a14610104578063115493e114610134578063126dbe431461015057806327506f53146101805780632b800e3b1461019e575b600080fd5b6100ee60048036038101906100e991906119d6565b6102e6565b6040516100fb919061219a565b60405180910390f35b61011e60048036038101906101199190611a4e565b6106e0565b60405161012b9190612371565b60405180910390f35b61014e600480360381019061014991906119ff565b61078f565b005b61016a60048036038101906101659190611a4e565b610b5a565b6040516101779190612356565b60405180910390f35b610188610cce565b60405161019591906121bc565b60405180910390f35b6101b860048036038101906101b39190611a4e565b610df7565b6040516101c5919061212c565b60405180910390f35b6101d6610e2a565b6040516101e3919061219a565b60405180910390f35b6101f4610f49565b6040516102019190612371565b60405180910390f35b610224600480360381019061021f91906119d6565b610f52565b604051610231919061221b565b60405180910390f35b610254600480360381019061024f9190611ac6565b610f72565b6040516102619190612200565b60405180910390f35b610284600480360381019061027f9190611b02565b6110f8565b6040516102919190612200565b60405180910390f35b6102b460048036038101906102af91906119d6565b61133a565b6040516102c191906121de565b60405180910390f35b6102e460048036038101906102df9190611a77565b61163b565b005b60606000600280549050905060008167ffffffffffffffff811115610334577f4e487b7100000000000000000000000000000000000000000000000000000000600052604160045260246000fd5b60405190808252806020026020018201604052801561036d57816020015b61035a611943565b8152602001906001900390816103525790505b509050600080600184610380919061249e565b90505b600081106105b1578573ffffffffffffffffffffffffffffffffffffffff16600282815481106103dc577f4e487b7100000000000000000000000000000000000000000000000000000000600052603260045260246000fd5b906000526020600020906004020160020160009054906101000a900473ffffffffffffffffffffffffffffffffffffffff1673ffffffffffffffffffffffffffffffffffffffff1614156105905760028181548110610464577f4e487b7100000000000000000000000000000000000000000000000000000000600052603260045260246000fd5b906000526020600020906004020160405180608001604052908160008201548152602001600182015481526020016002820160009054906101000a900473ffffffffffffffffffffffffffffffffffffffff1673ffffffffffffffffffffffffffffffffffffffff1673ffffffffffffffffffffffffffffffffffffffff1681526020016003820160009054906101000a900473ffffffffffffffffffffffffffffffffffffffff1673ffffffffffffffffffffffffffffffffffffffff1673ffffffffffffffffffffffffffffffffffffffff1681525050838381518110610576577f4e487b7100000000000000000000000000000000000000000000000000000000600052603260045260246000fd5b6020026020010181905250818061058c906125b1565b9250505b600081141561059e576105b1565b80806105a990612587565b915050610383565b5060008167ffffffffffffffff8111156105f4577f4e487b7100000000000000000000000000000000000000000000000000000000600052604160045260246000fd5b60405190808252806020026020018201604052801561062d57816020015b61061a611943565b8152602001906001900390816106125790505b50905060005b828110156106d357838181518110610674577f4e487b7100000000000000000000000000000000000000000000000000000000600052603260045260246000fd5b60200260200101518282815181106106b5577f4e487b7100000000000000000000000000000000000000000000000000000000600052603260045260246000fd5b602002602001018190525080806106cb906125b1565b915050610633565b5080945050505050919050565b600080600280549050905060006001826106fa919061249e565b90505b60008110610783578360028281548110610740577f4e487b7100000000000000000000000000000000000000000000000000000000600052603260045260246000fd5b906000526020600020906004020160000154141561076257809250505061078a565b600081141561077057610783565b808061077b90612587565b9150506106fd565b5060009150505b919050565b600061079a826106e0565b905060008114156107e0576040517f08c379a00000000000000000000000000000000000000000000000000000000081526004016107d790612256565b60405180910390fd5b826002828154811061081b577f4e487b7100000000000000000000000000000000000000000000000000000000600052603260045260246000fd5b9060005260206000209060040201600101541461086d576040517f08c379a0000000000000000000000000000000000000000000000000000000008152600401610864906122f6565b60405180910390fd5b3373ffffffffffffffffffffffffffffffffffffffff16600282815481106108be577f4e487b7100000000000000000000000000000000000000000000000000000000600052603260045260246000fd5b906000526020600020906004020160030160009054906101000a900473ffffffffffffffffffffffffffffffffffffffff1673ffffffffffffffffffffffffffffffffffffffff1614610946576040517f08c379a000000000000000000000000000000000000000000000000000000000815260040161093d90612236565b60405180910390fd5b3360028281548110610981577f4e487b7100000000000000000000000000000000000000000000000000000000600052603260045260246000fd5b906000526020600020906004020160020160006101000a81548173ffffffffffffffffffffffffffffffffffffffff021916908373ffffffffffffffffffffffffffffffffffffffff16021790555060016000808282546109e29190612448565b9250508190555060016040518060a001604052803373ffffffffffffffffffffffffffffffffffffffff1681526020018673ffffffffffffffffffffffffffffffffffffffff16815260200185815260200184815260200142815250908060018154018082558091505060019003906000526020600020906005020160009091909190915060008201518160000160006101000a81548173ffffffffffffffffffffffffffffffffffffffff021916908373ffffffffffffffffffffffffffffffffffffffff16021790555060208201518160010160006101000a81548173ffffffffffffffffffffffffffffffffffffffff021916908373ffffffffffffffffffffffffffffffffffffffff16021790555060408201518160020155606082015181600301556080820151816004015550507fc817d75deaa278e988c41cf549ef38fe195ab65e0e64cd67ba47f0d185690d583385858542604051610b4c959493929190612147565b60405180910390a150505050565b610b62611943565b6000610b6d836106e0565b90506000811415610bb3576040517f08c379a0000000000000000000000000000000000000000000000000000000008152600401610baa90612256565b60405180910390fd5b60028181548110610bed577f4e487b7100000000000000000000000000000000000000000000000000000000600052603260045260246000fd5b906000526020600020906004020160405180608001604052908160008201548152602001600182015481526020016002820160009054906101000a900473ffffffffffffffffffffffffffffffffffffffff1673ffffffffffffffffffffffffffffffffffffffff1673ffffffffffffffffffffffffffffffffffffffff1681526020016003820160009054906101000a900473ffffffffffffffffffffffffffffffffffffffff1673ffffffffffffffffffffffffffffffffffffffff1673ffffffffffffffffffffffffffffffffffffffff1681525050915050919050565b60606001805480602002602001604051908101604052809291908181526020016000905b82821015610dee57838290600052602060002090600502016040518060a00160405290816000820160009054906101000a900473ffffffffffffffffffffffffffffffffffffffff1673ffffffffffffffffffffffffffffffffffffffff1673ffffffffffffffffffffffffffffffffffffffff1681526020016001820160009054906101000a900473ffffffffffffffffffffffffffffffffffffffff1673ffffffffffffffffffffffffffffffffffffffff1673ffffffffffffffffffffffffffffffffffffffff168152602001600282015481526020016003820154815260200160048201548152505081526020019060010190610cf2565b50505050905090565b60046020528060005260406000206000915054906101000a900473ffffffffffffffffffffffffffffffffffffffff1681565b60606002805480602002602001604051908101604052809291908181526020016000905b82821015610f40578382906000526020600020906004020160405180608001604052908160008201548152602001600182015481526020016002820160009054906101000a900473ffffffffffffffffffffffffffffffffffffffff1673ffffffffffffffffffffffffffffffffffffffff1673ffffffffffffffffffffffffffffffffffffffff1681526020016003820160009054906101000a900473ffffffffffffffffffffffffffffffffffffffff1673ffffffffffffffffffffffffffffffffffffffff1673ffffffffffffffffffffffffffffffffffffffff168152505081526020019060010190610e4e565b50505050905090565b60008054905090565b60036020528060005260406000206000915054906101000a900460ff1681565b600080610f7e846106e0565b90506000811415610fc4576040517f08c379a0000000000000000000000000000000000000000000000000000000008152600401610fbb90612256565b60405180910390fd5b3373ffffffffffffffffffffffffffffffffffffffff1660028281548110611015577f4e487b7100000000000000000000000000000000000000000000000000000000600052603260045260246000fd5b906000526020600020906004020160020160009054906101000a900473ffffffffffffffffffffffffffffffffffffffff1673ffffffffffffffffffffffffffffffffffffffff161461109d576040517f08c379a0000000000000000000000000000000000000000000000000000000008152600401611094906122b6565b60405180910390fd5b82600282815481106110d8577f4e487b7100000000000000000000000000000000000000000000000000000000600052603260045260246000fd5b906000526020600020906004020160010181905550600191505092915050565b6000806001811115611133577f4e487b7100000000000000000000000000000000000000000000000000000000600052602160045260246000fd5b600360003373ffffffffffffffffffffffffffffffffffffffff1673ffffffffffffffffffffffffffffffffffffffff16815260200190815260200160002060009054906101000a900460ff1660018111156111b8577f4e487b7100000000000000000000000000000000000000000000000000000000600052602160045260246000fd5b146111c257600080fd5b60006111cd856106e0565b905060008114611212576040517f08c379a0000000000000000000000000000000000000000000000000000000008152600401611209906122d6565b60405180910390fd5b600260405180608001604052808781526020018681526020018573ffffffffffffffffffffffffffffffffffffffff1681526020018573ffffffffffffffffffffffffffffffffffffffff168152509080600181540180825580915050600190039060005260206000209060040201600090919091909150600082015181600001556020820151816001015560408201518160020160006101000a81548173ffffffffffffffffffffffffffffffffffffffff021916908373ffffffffffffffffffffffffffffffffffffffff16021790555060608201518160030160006101000a81548173ffffffffffffffffffffffffffffffffffffffff021916908373ffffffffffffffffffffffffffffffffffffffff160217905550505060019150509392505050565b60606000805467ffffffffffffffff81111561137f577f4e487b7100000000000000000000000000000000000000000000000000000000600052604160045260246000fd5b6040519080825280602002602001820160405280156113ad5781602001602082028036833780820191505090505b509050600080600190505b600280549050811015611517578473ffffffffffffffffffffffffffffffffffffffff1660028281548110611416577f4e487b7100000000000000000000000000000000000000000000000000000000600052603260045260246000fd5b906000526020600020906004020160020160009054906101000a900473ffffffffffffffffffffffffffffffffffffffff1673ffffffffffffffffffffffffffffffffffffffff161415611504576002818154811061149e577f4e487b7100000000000000000000000000000000000000000000000000000000600052603260045260246000fd5b9060005260206000209060040201600001548383815181106114e9577f4e487b7100000000000000000000000000000000000000000000000000000000600052603260045260246000fd5b6020026020010181815250508180611500906125b1565b9250505b808061150f906125b1565b9150506113b8565b5060008167ffffffffffffffff81111561155a577f4e487b7100000000000000000000000000000000000000000000000000000000600052604160045260246000fd5b6040519080825280602002602001820160405280156115885781602001602082028036833780820191505090505b50905060005b8281101561162f578381815181106115cf577f4e487b7100000000000000000000000000000000000000000000000000000000600052603260045260246000fd5b6020026020010151828281518110611610577f4e487b7100000000000000000000000000000000000000000000000000000000600052603260045260246000fd5b6020026020010181815250508080611627906125b1565b91505061158e565b50809350505050919050565b6000611646846106e0565b90508273ffffffffffffffffffffffffffffffffffffffff1660028281548110611699577f4e487b7100000000000000000000000000000000000000000000000000000000600052603260045260246000fd5b906000526020600020906004020160020160009054906101000a900473ffffffffffffffffffffffffffffffffffffffff1673ffffffffffffffffffffffffffffffffffffffff1614611721576040517f08c379a000000000000000000000000000000000000000000000000000000000815260040161171890612316565b60405180910390fd5b6000811415611765576040517f08c379a000000000000000000000000000000000000000000000000000000000815260040161175c90612256565b60405180910390fd5b600073ffffffffffffffffffffffffffffffffffffffff168273ffffffffffffffffffffffffffffffffffffffff1614156117d5576040517f08c379a00000000000000000000000000000000000000000000000000000000081526004016117cc90612276565b60405180910390fd5b600073ffffffffffffffffffffffffffffffffffffffff168373ffffffffffffffffffffffffffffffffffffffff161415611845576040517f08c379a000000000000000000000000000000000000000000000000000000000815260040161183c90612336565b60405180910390fd5b8273ffffffffffffffffffffffffffffffffffffffff163373ffffffffffffffffffffffffffffffffffffffff16146118b3576040517f08c379a00000000000000000000000000000000000000000000000000000000081526004016118aa90612296565b60405180910390fd5b81600282815481106118ee577f4e487b7100000000000000000000000000000000000000000000000000000000600052603260045260246000fd5b906000526020600020906004020160030160006101000a81548173ffffffffffffffffffffffffffffffffffffffff021916908373ffffffffffffffffffffffffffffffffffffffff16021790555050505050565b60405180608001604052806000815260200160008152602001600073ffffffffffffffffffffffffffffffffffffffff168152602001600073ffffffffffffffffffffffffffffffffffffffff1681525090565b6000813590506119a68161266c565b92915050565b6000813590506119bb81612683565b92915050565b6000813590506119d08161269a565b92915050565b6000602082840312156119e857600080fd5b60006119f684828501611997565b91505092915050565b600080600060608486031215611a1457600080fd5b6000611a22868287016119ac565b9350506020611a33868287016119c1565b9250506040611a44868287016119c1565b9150509250925092565b600060208284031215611a6057600080fd5b6000611a6e848285016119c1565b91505092915050565b600080600060608486031215611a8c57600080fd5b6000611a9a868287016119c1565b9350506020611aab86828701611997565b9250506040611abc86828701611997565b9150509250925092565b60008060408385031215611ad957600080fd5b6000611ae7858286016119c1565b9250506020611af8858286016119c1565b9150509250929050565b600080600060608486031215611b1757600080fd5b6000611b25868287016119c1565b9350506020611b36868287016119c1565b9250506040611b4786828701611997565b9150509250925092565b6000611b5d8383611ffc565b60808301905092915050565b6000611b7583836120a6565b60a08301905092915050565b6000611b8d838361210e565b60208301905092915050565b611ba28161253f565b82525050565b611bb1816124d2565b82525050565b611bc0816124d2565b82525050565b6000611bd1826123bc565b611bdb8185612404565b9350611be68361238c565b8060005b83811015611c17578151611bfe8882611b51565b9750611c09836123dd565b925050600181019050611bea565b5085935050505092915050565b6000611c2f826123c7565b611c398185612415565b9350611c448361239c565b8060005b83811015611c75578151611c5c8882611b69565b9750611c67836123ea565b925050600181019050611c48565b5085935050505092915050565b6000611c8d826123d2565b611c978185612426565b9350611ca2836123ac565b8060005b83811015611cd3578151611cba8882611b81565b9750611cc5836123f7565b925050600181019050611ca6565b5085935050505092915050565b611ce9816124f6565b82525050565b611cf881612551565b82525050565b6000611d0b602083612437565b91507f4f776e657273686970207472616e73666572206e6f7420696e697469617465646000830152602082019050919050565b6000611d4b601783612437565b91507f50726f706572747920646f6573206e6f742065786973740000000000000000006000830152602082019050919050565b6000611d8b602583612437565b91507f4e6577206f776e65722063616e6e6f7420626520746865207a65726f2061646460008301527f726573732e0000000000000000000000000000000000000000000000000000006020830152604082019050919050565b6000611df1602e83612437565b91507f4f6e6c79207468652063757272656e74206f776e65722063616e2063616c6c2060008301527f746869732066756e6374696f6e2e0000000000000000000000000000000000006020830152604082019050919050565b6000611e57602383612437565b91507f4f6e6c7920746865206f776e65722063616e206368616e67652074686520766160008301527f6c756500000000000000000000000000000000000000000000000000000000006020830152604082019050919050565b6000611ebd601783612437565b91507f50726f706572747920616c7265616479206578697374730000000000000000006000830152602082019050919050565b6000611efd601083612437565b91507f496e636f727265637420616d6f756e74000000000000000000000000000000006000830152602082019050919050565b6000611f3d603383612437565b91507f4f6e6c7920746865206f776e65722063616e20696e697469617465207468652060008301527f6f776e657273686970207472616e736665722e000000000000000000000000006020830152604082019050919050565b6000611fa3602983612437565b91507f43757272656e74206f776e65722063616e6e6f7420626520746865207a65726f60008301527f20616464726573732e00000000000000000000000000000000000000000000006020830152604082019050919050565b608082016000820151612012600085018261210e565b506020820151612025602085018261210e565b5060408201516120386040850182611ba8565b50606082015161204b6060850182611ba8565b50505050565b608082016000820151612067600085018261210e565b50602082015161207a602085018261210e565b50604082015161208d6040850182611ba8565b5060608201516120a06060850182611ba8565b50505050565b60a0820160008201516120bc6000850182611ba8565b5060208201516120cf6020850182611ba8565b5060408201516120e2604085018261210e565b5060608201516120f5606085018261210e565b506080820151612108608085018261210e565b50505050565b61211781612535565b82525050565b61212681612535565b82525050565b60006020820190506121416000830184611bb7565b92915050565b600060a08201905061215c6000830188611bb7565b6121696020830187611b99565b612176604083018661211d565b612183606083018561211d565b612190608083018461211d565b9695505050505050565b600060208201905081810360008301526121b48184611bc6565b905092915050565b600060208201905081810360008301526121d68184611c24565b905092915050565b600060208201905081810360008301526121f88184611c82565b905092915050565b60006020820190506122156000830184611ce0565b92915050565b60006020820190506122306000830184611cef565b92915050565b6000602082019050818103600083015261224f81611cfe565b9050919050565b6000602082019050818103600083015261226f81611d3e565b9050919050565b6000602082019050818103600083015261228f81611d7e565b9050919050565b600060208201905081810360008301526122af81611de4565b9050919050565b600060208201905081810360008301526122cf81611e4a565b9050919050565b600060208201905081810360008301526122ef81611eb0565b9050919050565b6000602082019050818103600083015261230f81611ef0565b9050919050565b6000602082019050818103600083015261232f81611f30565b9050919050565b6000602082019050818103600083015261234f81611f96565b9050919050565b600060808201905061236b6000830184612051565b92915050565b6000602082019050612386600083018461211d565b92915050565b6000819050602082019050919050565b6000819050602082019050919050565b6000819050602082019050919050565b600081519050919050565b600081519050919050565b600081519050919050565b6000602082019050919050565b6000602082019050919050565b6000602082019050919050565b600082825260208201905092915050565b600082825260208201905092915050565b600082825260208201905092915050565b600082825260208201905092915050565b600061245382612535565b915061245e83612535565b9250827fffffffffffffffffffffffffffffffffffffffffffffffffffffffffffffffff03821115612493576124926125fa565b5b828201905092915050565b60006124a982612535565b91506124b483612535565b9250828210156124c7576124c66125fa565b5b828203905092915050565b60006124dd82612515565b9050919050565b60006124ef82612515565b9050919050565b60008115159050919050565b600081905061251082612658565b919050565b600073ffffffffffffffffffffffffffffffffffffffff82169050919050565b6000819050919050565b600061254a82612563565b9050919050565b600061255c82612502565b9050919050565b600061256e82612575565b9050919050565b600061258082612515565b9050919050565b600061259282612535565b915060008214156125a6576125a56125fa565b5b600182039050919050565b60006125bc82612535565b91507fffffffffffffffffffffffffffffffffffffffffffffffffffffffffffffffff8214156125ef576125ee6125fa565b5b600182019050919050565b7f4e487b7100000000000000000000000000000000000000000000000000000000600052601160045260246000fd5b7f4e487b7100000000000000000000000000000000000000000000000000000000600052602160045260246000fd5b6002811061266957612668612629565b5b50565b612675816124d2565b811461268057600080fd5b50565b61268c816124e4565b811461269757600080fd5b50565b6126a381612535565b81146126ae57600080fd5b5056fea2646970667358221220157d9f5ae22eb1f08a7c0f0f1d1f7763149d85fb36d014116d85d70981ce1e8864736f6c63430008000033",
  "linkReferences": {},
  "deployedLinkReferences": {}
}